:020000040800F2
:10000000E0BE0020C5020008C9020008CB020008BB
:10001000CD020008CF020008D10200080000000055
:10002000000000000000000000000000D3020008F3
:10003000D5020008000000004B030008919700085B
:100040003DB00008DB020008DB0200082188000840
:10005000DB020008DB020008B11E0008DB0200081A
:10006000DB020008DB020008DB020008DB020008FC
:10007000DB020008DB020008DB020008DB020008EC
:10008000DB020008DB020008DB020008DB020008DC
:10009000DB020008DB020008DB020008DB020008CC
:1000A000DB020008DB020008DB020008DB020008BC
:1000B00005980008BD980008ED980008DB020008CC
:1000C000DB020008DB020008DB020008DB0200089C
:1000D000DB020008FDAD000889AE0008D9AF0008BA
:1000E000DB020008DB020008DB020008DB0200087C
:1000F000DB020008DB020008DB020008DB0200086C
:10010000DB020008DB020008DB020008DB0200085B
:1001100091AD0008DB020008DB020008DB020008EA
:10012000DB020008DB020008DB020008DB0200083B
:1001300000F002F800F0B0F80AA090E8000C824449
:100140008344AAF10107DA4501D100F0A5F8AFF226
:10015000090EBAE80F0013F0010F18BFFB1A43F0A5
:1001600001031847F4370100143801000A444FF026
:10017000000C10F8013B13F0070408BF10F8014B06
:100180001D1108BF10F8015B641E05D010F8016B4B
:10019000641E01F8016BF9D113F0080F1EBF10F8AF
:1001A000014BAD1C0C1B09D16D1E58BF01F801CBD2
:1001B000FAD505E014F8016B01F8016B6D1EF9D555
:1001C0009142D6D37047000000230024002500266A
:1001D000103A28BF78C1FBD8520728BF30C148BFAA
:1001E0000B6070476E2900F00384702900F0E181F4
:1001F000662911F0A283652911F09F83672911F008
:100200009C836129AFF3008003681B0A28BF41F07B
:100210008001692900F05281642900F04F8175291D
:1002200000F04C816F2900F00987782900F0AD813A
:10023000E92900F0A386E42900F0A086F52900F062
:100240009D86EF2900F00687F82900F0AC8103684D
:10025000DB0928BF41F08001632900F01286732971
:1002600000F01786E32900F09787F32900F09C87B8
:10027000002070471FB500F0F7FE040000200021A9
:1002800010F0EAFB401C60600020002110F0CEFB63
:10029000E0601FBD10B510BD01F020F81146FFF75A
:1002A000E9FF0DF0D1FF01F047F803B4FFF7F2FFCB
:1002B00003BC0AF0FEFE000030BF72B662B680F3E7
:1002C0000888704708480047FEE7FEE7FEE7FEE7BC
:1002D000FEE7FEE7FEE7FEE7FEE7FEE70348044928
:1002E000044A054B7047000031010008E0B80020C7
:1002F000E0BE0020E0BA0020E0BA0020EFF310805A
:1003000072B6704780F310887047204C204D2560EE
:100310004FF0000484F309881E4C4FF0010525704E
:100320001D4C4FF08055256062B6FEE730B41A4C84
:100330004FF08055256030BC704730B4164C4FF0FC
:100340008055256030BC704700BF72B6EFF309805E
:1003500028B1203880E8F00F10490968086000B51E
:100360000F4880475DF804EB0E480F490A78027089
:100370000A480E490A680260106890E8F00F2030C1
:1003800080F309884EF0040E62B6704720ED00E05D
:100390000000FFFF3603002004ED00E03C030020D6
:1003A000D57A00082B0300202C03002044030020F2
:1003B000704700001CB50C46064B7B446946009014
:1003C000204600F03CFD04460020694600F04AFD4E
:1003D00020461CBDA70A00000FB4044910B503AAAB
:1003E000029800F05BFD10BC5DF814FBFC000020DF
:1003F0000FB41CB5084B06AA7B44694600900598CB
:1004000000F01DFD04460020694600F02BFD20464B
:100410001CBC5DF814FB0000690A000070B50446BE
:1004200085690068C10601D5302600E02026C00796
:1004300007D070BDD4E9012130469047206A401CA6
:1004400020626D1EF6D570BD70B5044685690078D2
:10045000C00707D170BDD4E9012120209047206A50
:10046000401C20626D1EF6D570BD70B50C46054669
:10047000012A05D02878800600D5EA69002302E029
:10048000012305E05B1C934202D2E05C0028F9D115
:10049000A869E618C01AA861286A18442862284684
:1004A000FFF7BCFF04E0D5E9012114F8010B9047E8
:1004B000B442F8D32846FFF7C7FF70BD2DE9F041DD
:1004C0000646002410687529314616A510D000F0A4
:1004D00024FA002802DA404213A507E031688A07AF
:1004E00001D512A502E0490704D511A5012401E0B8
:1004F00000F01CFA00210A2206F1240709E0B0FBF3
:10050000F2FCB0FBF2F302FB1C00303078541846CA
:10051000491C0028F3D123462A463046BDE8F04165
:1005200000F00DBA000000002D0000002B000000BC
:1005300020000000F0B40D460188090502D5214CC9
:100540007C4402E01F4C7C440E34002100F1240660
:1005500008E002F00F071209E75D42EA03721B0987
:100560007754491C52EA0307F3D10278002312079B
:1005700004D5702D06D009B1022311342246F0BCF7
:1005800000F0DDB901231034F8E770B504460D46DC
:100590002146106800F0CAF9024629462046BDE807
:1005A00070400023C6E7D21D22F00703D3E90023E1
:1005B000C0E70368126843F0200303600823C361A7
:1005C0000023B7E79E3101002DE9F05F894604461C
:1005D0004FF0000ADFF874B1FB44C0F820A02046B9
:1005E000E1688847002874D0252806D0D4E9012185
:1005F0009047206A401C2062F1E700265F462046B3
:10060000E16888472028054607DB312D05D2781997
:1006100010F8200C08B10643F1E7B00701D526F029
:100620000406C4F81CA00027C4F818A02A2D09D07D
:1006300028460AF037FD38B304EB8708303DC8F888
:10064000185019E059F8041B204604EB8702916109
:10065000E1688847012F054618D1E069002820DAB3
:1006600026F020061DE0D8F8180000EB800005EB0E
:1006700040003038C8F818002046E1688847054631
:100680000AF010FD0028EED1012F0AD02E2D08D13E
:100690002046E16888477F1C0546022F46F0200669
:1006A000C4DBA069002803DA404246F00106A061DD
:1006B000F00701D026F010066C2D0BD0682D09D064
:1006C0004C2D39D06A2D35D0742D35D07A2D33D0BC
:1006D00016E038E0E1682F4620468847B8420546D4
:1006E00009D16C2F26D04FF48060E1680643204684
:1006F0008847054604E06C2F1AD04FF480700643FB
:100700000DB3A5F14100192802D8203546F4006642
:100710004A462946204626604E46FFF763FD80B1D3
:1007200001280BD0F61D26F0070000F1080956E756
:100730004020E4E78020D8E70020D6E706F104094E
:100740004DE7284652E7206ABDE8F09F2E310100B0
:1007500030B505460B462A4613F8014B12F8010B3B
:1007600008B1A042F8D01CB1002802D06D1CF1E7FE
:10077000284630BD10B5431C02E010F8011B71B1D2
:100780008107FAD14FF0013202C88C1A8C4314EA67
:10079000C211F9D0C01A0A0603D0C01E10BDC01A7B
:1007A00010BD0A0401D0801E10BD0902FCD0401EFD
:1007B00010BD421E12F8013F002BFBD111F8013B86
:1007C000002B02F8013BF9D1704710B5203AC0F078
:1007D0000B80B1E81850203AA0E81850B1E8185042
:1007E000A0E81850BFF4F5AF5FEA027C24BFB1E87F
:1007F0001850A0E8185044BF18C918C0BDE81040F0
:100800005FEA827C24BF51F8043B40F8043B08BFF8
:100810007047D20728BF31F8023B48BF11F8012BBF
:1008200028BF20F8023B48BF00F8012B70474FF06B
:10083000000200B5134694469646203922BFA0E830
:100840000C50A0E80C50B1F12001BFF4F7AF09073C
:1008500028BFA0E80C5048BF0CC05DF804EB89002D
:1008600028BF40F8042B08BF704748BF20F8022B70
:1008700011F0804F18BF00F8012B70474FF0013C7A
:1008800050F8042B51F8043B9A4221D1A2EB0C03FF
:10089000934313EACC1317D150F8042B51F8043BBF
:1008A0009A4215D1A2EB0C03934313EACC130BD15C
:1008B00050F8042B51F8043B9A4209D1A2EB0C03E7
:1008C000934313EACC13DBD04FF00000704700BF16
:1008D000D01A01BAB1FA81F101F0180122FA01F03F
:1008E000CB40C1F12001DBB2C0B2C01A2CFA01F337
:1008F000D11A914311EAC311E6D17047704770478E
:100900007047704710B500F0B3FB006810BD10B51C
:10091000044600F0ADFB046010BD09684A0501D52E
:1009200040B27047C905FCD500B2704709684A0556
:1009300001D5C0B27047C905FCD580B270472DE91A
:10094000F0470D4699469246044600F12408016896
:10095000880604D5E06921F01001216000E0012043
:10096000A84201DD471B00E00027A1697A1902EBCC
:100970000900081AA0612078C00602D42046FFF7BB
:100980004DFD002608E0D4E901211AF80600904741
:10099000206A401C761C20624E45F4DB2078C0069D
:1009A0000AD52046FFF73AFD06E0D4E901213020C0
:1009B0009047206A401C2062381EA7F10107F4DC32
:1009C00007E0D4E9012118F805009047206A401C8F
:1009D0002062281EA5F10105F3DC2046FFF734FD57
:1009E0002078000602D50220BDE8F0870120FBE751
:1009F00011680268006A530501D508700AE0D30542
:100A000001D5088006E0130603D5C217C1E900022C
:100A100000E008600120704770472DE9FF4F0C4649
:100A20001E464FF0FF378BB0D2E90001DDF8608041
:100A30000A908A46C1F30A5505B93D460021084689
:100A40004FF00000BAF1000F00F4400005DA00EBAF
:100A500080004FF4400101EA50004FEA9059B9F18B
:100A6000010F00DDB9460A9850EA4A000ED044F65C
:100A70001050A5F2FF3545432F14B8F1000F1ED0DA
:100A80007542291E1EDDC9F100021CE0B8F1010FFC
:100A90004FF0000001D0302103E0F24305E0215483
:100AA000401CB042FBDB30460022002121540B9950
:100AB000C1F80880C1E900200FB0BDE8F08FBD1B70
:100AC0006D1CDEE74A4600DA694206A800F070FBBA
:100AD00006AB93E8070003AB83E8070050460A998A
:100AE00000F030FC8DE80700A0F500501F380090A2
:100AF0000398002D09DD42F21F014A46084403A96C
:100B00000390684600F08FFE08E0A0F500504A46CA
:100B10001F3803A90390684600F099FE8DE807008E
:100B20000004000C03D04FF0FF30410800E01046F5
:100B3000B8F1000F03D00022009215461EE0751E8A
:100B400005D400F099FA303262556D1EF9D5B346DE
:100B50000122084302D000227F1C04E020783028C4
:100B600001D100227F1E002A099786D01DE0112D99
:100B700007DA00F081FA303262556D1C50EA01024A
:100B8000F5D1084302D00098C8B10EE00021681EDC
:100B900005E0235C625C63542254401E491C814280
:100BA000F7DBAB46A81B401E0990002004F80B00A1
:100BB0000B98099AC0F80880C0E9002B7CE7112641
:100BC0004FF0000859E72DE9F04F88460446D21D42
:100BD00022F0070191B0D1E90001CDE90A010AF044
:100BE0004DFA02460B98C00F01D02D2007E0206877
:100BF000810701D52B2002E0202101EAC000032A51
:100C0000099001D0072A05DB03464146204600F043
:100C100079FA0BE12078800601D5E06900E0062032
:100C2000B8F1650F814606D0B8F1660F18D0B8F15B
:100C3000670F70D131E00020B9F1110F009001DB96
:100C4000112301E009F101030AAA01A90CA8FFF789
:100C5000E4FEDDE90C70002609F10105834647E05A
:100C600001204B4600904FF000470AAA01A90CA8AA
:100C7000FFF7D3FEDDE90DB00C995D46002610B9F3
:100C800009F101000D18B9EB050003D4C0F1FF36DE
:100C900009F10105A5EB09002BE0B9F1010F01DA1B
:100CA0004FF001090020B9F1110F0090484601DD15
:100CB000112300E003460AAA01A90CA8FFF7ADFE24
:100CC000DDE90C704D4600268346207800070AD4E3
:100CD000AB4500DA5D4601A8012D04DD411911F88C
:100CE000011C302907D04F4502DA17F1040F04DA4E
:100CF000012082460FE06D1EEEE7002F02DCED1BA7
:100D00003E4403E0781CA84200DD7D1CB81B00F1C6
:100D1000010A4FF000472078000703D4AA4501DB01
:100D20004FF0FF3A0021B7F1004F0DF143088DF865
:100D3000431024D002202B23002F01DA7F422D23E1
:100D40000A21021EA0F1010000DC5FB197FBF1FC5B
:100D500097FBF1F201FB1C7C17460CF1300C08F8F4
:100D600001CDEEE7A8F1010003702188090501D546
:100D7000452100E06521A0F1010800F8011C099857
:100D80000FA9A1EB0807FF1D00B10120411901EBDC
:100D9000EA70A1693844081A401EA0612078C00694
:100DA00002D42046FFF73AFB099828B1D4E9012183
:100DB0009047206A401C20622078C00622D5204639
:100DC000FFF72CFB1EE0002E04DBB34502DD01A87B
:100DD000805D00E03020D4E901219047206A401C6A
:100DE0002062761CAAF101005FEA000A0AD100F035
:100DF0003BF9C0680168405CD4E901219047206A52
:100E0000401C2062281EA5F10105DCDC07E0D4E9C6
:100E1000012118F8010B9047206A401C2062381EFF
:100E2000A7F10107F3DC2046FFF70EFB032011B00A
:100E300043E6000001694A1C02610878704700B56A
:100E40008FB0CDE901310021059105497944CDE903
:100E5000031011466846FFF7B7FB0FB000BD000056
:100E6000E5FFFFFF0A6802F8010B0A60704710B542
:100E7000436913B1AFF3008001E0FFF7F6FA0120F8
:100E800010BD127800F124010A7000224A7001227C
:100E9000EDE711684FF0FF32E9E70000074B70B54E
:100EA0000D467B44FFF7CBFF0446284600F0EEF9E1
:100EB00010B14FF0FF3070BD204670BD0FCC000068
:100EC0002DE9FF5F15468A460446DFF8AC80F844FA
:100ED0000027D8E900103E46CDE9001010E03AF8AE
:100EE00016106A4602A800F0D5F9411C07D02178F7
:100EF000890603D5E269391891420DD80744761C5A
:100F00002078800602D5E069B84205DDAE42E6DB16
:100F10003AF816000028E2D1A069C01BA061204663
:100F2000FFF77CFAD8E90010CDE90010002017E0A7
:100F30003AF818106A4602A800F0ACF9B0F1FF3F89
:100F400081460BD000250DF1080B05E0D4E9012105
:100F50001BF8050090476D1C4D45F7D308F10100C3
:100F6000B0428046E4DB206A384420622046FFF726
:100F70006BFABDE8FF9F00004A2801002DE9F0410F
:100F80008046D21D22F007020025D2E90002F52991
:100F900015A614D0011E72F1000106DA0023D0EB71
:100FA000030063EB020211A608E0D8F800108B07DB
:100FB00001D50FA602E0490701D50EA6012511466D
:100FC000002408F1240704E000F056F830323A55C6
:100FD000641C50EA0102F7D12B46324621464046B6
:100FE000BDE8F041FFF7ABBC000000002D000000A1
:100FF0002B0000002000000030B4002100F1240488
:1010000008E002F00705D208303542EA4372DB08F7
:101010006554491C52EA0305F3D10468002310A269
:10102000250708D504F020040C4304D0C46901232B
:101030000CA2641EC46130BCFFF781BC10B504462D
:1010400021461068FFF772FC02462046BDE81040BA
:101050000023D1E7D21D22F00701D1E90023CBE71D
:10106000000000003000000000487047A0B80020D9
:101070000048704780B8002030B5B0F10A024FEA4E
:10108000900E71F100034EEA817EB0EB0E0061EB31
:1010900091014FEA101E4EEA017E10EB0E0041EB6B
:1010A00011114FEA102E4EEA016E10EB0E0041EBCB
:1010B00011214FEA104E4EEA014E10EB0E0041EBAB
:1010C0001141401841F100014FEAD00040EA41705F
:1010D0004FEAD10110EB80054FEA810444EA907495
:1010E00044EB01046D1944EB0404521BA3414FF07F
:1010F000000348BF0A3200D530BD401C41F1000159
:1011000030BD00002DE9F0411F460446032601686A
:10111000072A01F4006004DB08B116A505E016A556
:1011200003E008B115A500E015A521F0100020602E
:10113000A069C01EA0610FB1401EA0612046FFF74C
:101140006DF94FB1D4E9012138469047206A401C1F
:101150002062C01C206206E0206AFAE7D4E901217F
:1011600015F8010B9047761EF8D22046FFF76CF970
:10117000BDE8F0814E414E006E616E00494E460062
:10118000696E660010B5436913B1AFF3008001E0EA
:10119000FFF796FE012010BD128800F12401828421
:1011A0000022C2840122EDE711684FF0FF32E9E727
:1011B0002DE9F047814616468AB0334878440DC879
:1011C0008DE80D0030487844801C03AC0DC884E8DD
:1011D0000D0041F69B300844372190FBF1F290FB63
:1011E000F1F5A5F1800501FB12041B3C02D5644218
:1011F000012000E00020DFF890A080460027FA449C
:10120000AAF1BE0A0DE0E00709D03246684607EBB6
:1012100047010AEB810100F01AFB8DE8070064101A
:101220007F1C002CEFD1184F7F44AC3F18E0E8073B
:1012300014D007EB04100DF1180A90E80E008AE8AC
:101240000E00C068F04201D198190890324606A9F4
:1012500003A800F0FCFA03AB83E807006D10641CE0
:10126000002DE4D132466946B8F1000F03A802D040
:1012700000F0D9FA01E000F0EAFAC9E90001C9F882
:1012800008200AB0BDE8F087E0250100007B00F0EF
:101290008000704770B516460C46054600F044F8CD
:1012A000036893F80101012806D0FF2C0FD8185DC0
:1012B00068B101202C7070BDD3F807013246214679
:1012C00003F2071303442846BDE8704018474FF067
:1012D000FF3070BD0048704780B800207546FFF7AA
:1012E000F9FFAE4605006946534620F007008546E3
:1012F00018B020B5FEF7F2FFBDE820404FF0000621
:101300004FF000074FF000084FF0000B21F00701ED
:10131000AC46ACE8C009ACE8C009ACE8C009ACE830
:10132000C0098D467047000010B5FFF79DFE001DF7
:1013300010BD00BF25F700000446AFF30080204633
:10134000FEF7B3FF5FEA400C08BF91F0000F4FEAD1
:101350008C234FEAC12243EA51514FEA1C5018BF77
:1013600000F5F0404FEA300018BF41F000415FEA5D
:101370006C5C00F02980BCF1FF3F08BF40F080406A
:101380007047130C06BF12044FF0100C4FF0000C06
:10139000130E04BF12020CF1080C130F04BF12014C
:1013A0000CF1040C930F04BF92000CF1020CD30F4C
:1013B00004BF52000CF1010C11464FF00002A0F1E5
:1013C0001F00A0EB0C00704711F0004F08BF7047E2
:1013D00031F000413FF4D5AF0B0C06BF09044FF0CC
:1013E000100C4FF0000C0B0E04BF09020CF1080C9E
:1013F0000B0F04BF09010CF1040C8B0F04BF890013
:101400000CF1020CCB0F04BF49000CF1010CCCF124
:101410002003A0EB0C0022FA03F302FA0CF241EADB
:10142000030100F10100704720F07F4C80EA0300C7
:1014300023F07F47ACEB070303F57C5300F000403B
:1014400003F1FF032DE980494FEA154B09B44FEA38
:10145000144325EA0B4E24EA03480FF2042606EB58
:10146000132749083E785FEA320203FB0667C7F597
:10147000000707FB06F64FEA54374FEAD64606F157
:10148000020607FB066CCCF1005C4FEA1C472CEA15
:10149000074C07FB06F40CFB06F504EB15464FEA78
:1014A000961634BF00204FF000404FEAD13706FBBC
:1014B00007FC4FEA1C4C0CFB0BF7D21B03FB0CF791
:1014C00061EB07010CFB0EF7B0EB074072EB174224
:1014D0000CFB08F734BFA2EB0742B2EB074261EB0B
:1014E00017414FEA0C444FEA910706FB07FC4FEA0D
:1014F0001C4C0CFB0BF7B0EBC74072EB573203FBF5
:101500000CF734BFA2EBC742B2EBC74261EB5731D5
:101510000CFB0EF7B0EBC70072EB57720CFB08F731
:1015200034BFA2EBC702B2EBC70261EB5771039F56
:101530004FEA816141EA921104EBCC044FEAD137C2
:101540004FEA826206FB07FC42EA90124FEA806093
:101550004FEA1C4C0CFB0BF7D21B03FB0CF761EBA7
:1015600007010CFB0EF7B0EB074072EB17420CFBC8
:1015700008F734BFA2EB0742B2EB074261EB174119
:101580004FEA8C554FEA910704EB9C2406FB07FCBD
:101590004FEA1C4C0CFB0BF7B0EBC74072EB573219
:1015A00003FB0CF734BFA2EBC742B2EBC74261EBBF
:1015B00057310CFB0EF7B0EBC70072EB57720CFB08
:1015C00008F734BFA2EBC702B2EBC70261EB577159
:1015D00015EB4C254FEA816141EA92114FEA826294
:1015E0004FEAD13742EA901206FB07FC44F10004AF
:1015F0004FEA80604FEA1C4C0CFB0BF7D21B03FB3D
:101600000CF761EB07010CFB0EF7B0EB074072EB38
:1016100017420CFB08F734BFA2EB0742B2EB0742BC
:1016200061EB174115EB1C154FEA813141EA9241FC
:101630004FEA823242EA90424FEA80304FEA0C761B
:1016400044F1000448EA03434EEA0B484FF0000E11
:10165000B2EB080C71EB030724BF624639464EEB30
:101660000E0E4FF0000B0018524149414BEB0B0B93
:10167000B2EB080C71EB03077BF1000B24BF624651
:1016800039464EEB0E0E4FF0000B00185241494107
:101690004BEB0B0BB2EB080C71EB03077BF1000B70
:1016A00024BF624639464EEB0E0E51EA020718BFC0
:1016B00046F0010616EB0E7655F1000254F10001DA
:1016C00003D5BDE88901BDE80088BDE88901BDE812
:1016D0000048B619524141EB0101A3F101037047E3
:1016E00080807F7E7D7C7B7A79787776767574735F
:1016F000727171706F6E6E6D6C6C6B6A6A6968681E
:10170000676666656464636362616160605F5F5EB3
:101710005E5D5D5C5C5B5B5A5A5959585857575629
:10172000565555555454535352525251515050508E
:101730004F4F4F4E4E4D4D4D4C4C4C4B4B4B4A4AE0
:101740004A49494948484847474747464646454524
:10175000454444444443434343424242424141415D
:10176000002B26D4770021D01CB54FEA370703B4ED
:101770004FF010004FF010014FF000000FBCBDE81B
:1017800010400BF1010BBBF1010F08BF5FEA170717
:1017900022BF12F1010211F101014FF0004143F1AA
:1017A000000300F0004043EA00007047F9D35708F7
:1017B000DAE746EA064613F1400F4FEA16461FDD08
:1017C00013F1200FDFBF16430A46002120335B428E
:1017D000C8D0C3F1200746EA064602FA07F74FEAE7
:1017E000164646EA0706C3F1200722FA03F201FA79
:1017F00007F721FA03F14FF0000342EA0702B1E7CD
:1018000046EA020646EA06464FEA164646EA010658
:10181000BCBF46EA0646360C4FF000034FF000020C
:101820004FF000019EE72DE9C048934630B491E89F
:10183000380007C831EA400C48BF34EA430C03D5EE
:10184000FFF7F2FDFFF78CFFF0BCBDE800882DE943
:10185000C048934630B491E8380007C810F0804F74
:1018600008BF13F0804F03D100F005F8FFF778FFB1
:10187000F0BCBDE8008820F07F4780EA030023F039
:101880007F4C07EB0C03A3F57C5300F00040A3F161
:10189000FE0392F0000F00F0B38095F0000F00F00F
:1018A00077802DE901494FEA11404FEA144621EAB9
:1018B000004800FB06FC24EA064708FB06F607FB87
:1018C00008F800FB07F718EB06484CEB164C4FEAFC
:1018D000124B18EB07484FEA15464CEB174022EA2B
:1018E0000B4E0BFB06FC25EA06470EFB06F607FB34
:1018F0000EFE0BFB07F71EEB064E4CEB164C4FF0A3
:1019000000061EEB074E4CEB174B18EB0B0840F193
:10191000000018EB0E0B58EB000840F100008F1A86
:101920004FF000013CBFC943661B14BFB5EB040C6C
:1019300000213CBFC943F61B4FEA17444EEA8E0E06
:1019400027EA04454FEA1C4704FB07622CEA074CD0
:1019500005FB07F70CFB05F604FB0CFC16EB074632
:1019600042EB174216EB0C4642EB1C421BEB060601
:1019700058EB0202414146EA9E0601D5BDE80189C5
:10198000B619524141EB0101A3F10103BDE8018900
:101990004FEA14454FEA114724EA054621EA074C6D
:1019A00005FB07F406FB07F70CFB06F105FB0CFC37
:1019B00011EB074144EB17444FEA124711EB0C417E
:1019C00044EB1C4422EA074C05FB07F206FB07F731
:1019D0000CFB06F605FB0CFC16EB074642EB174228
:1019E00016EB0C4642EB1C456A1854F1000148BF47
:1019F0007047B619524141EB0101A3F10103704751
:101A000095F0000F37D04FEA11424FEA144721EA10
:101A1000024624EA074C02FB07F106FB07F70CFB22
:101A200006F402FB0CFC14EB074441EB17414FEAB0
:101A3000154714EB0C4441EB1C4125EA074C02FB13
:101A400007F506FB07F70CFB06F602FB0CFC16EB92
:101A5000074645EB174516EB0C4645EB1C421219A1
:101A600051F1000148BF7047B619524141EB0101E5
:101A7000A3F1010370474FEA14454FEA114724EAE6
:101A8000054621EA074C05FB07F106FB07F70CFBAF
:101A900006F24FF0000605FB0CFC12EB074241EB8F
:101AA000174112EB0C4251EB1C4148BF7047921892
:101AB00041EB0101A3F10103704710B500F0DEFC1A
:101AC00010BD2DE9F04107460C460026002509E02F
:101AD00036023919491B491E88B200F008F806443D
:101AE000681CC5B2A542F3DB3046BDE8F08170B595
:101AF0000446002600F072FD2546E11704EB116153
:101B00000912A02202EB4101C8B200F033FD00F03F
:101B1000B1FDE11704EB11610912A4EB0121C8B278
:101B200000F028FD00F0A6FD00F058FDA12000F017
:101B300021FD00F09FFD002000F0E4FC064600F0CF
:101B400073FD304670BD2DE9F04105460E4617463F
:101B5000002409E0E20026FA02F2D1B22A1990B27A
:101B600000F006F8601CC4B2BC42F3DBBDE8F081B3
:101B700070B504460E4600F031FD2546E11704EB32
:101B800011610912A02202EB4101C8B200F0F2FC7F
:101B900000F070FDE11704EB11610912A4EB0121C3
:101BA000C8B200F0E7FC00F065FD304600F0E2FC52
:101BB00000F060FD00F038FD42F210700AF0C2FA49
:101BC00070BD10B505200AF0BDFA10BD10B500209B
:101BD0000F4908600F48006820F470400D49086004
:101BE0000846006840F440500860FFF7EAFF002014
:101BF0000949C1F88C01FFF7E4FF0120044908609E
:101C0000FFF7DFFF00200449C1F8800110BD00008C
:101C10008001224200100140000022420F488069EA
:101C200040F010000D4988610D4800684FF20F0127
:101C300088430B4908600846006843F203010843E3
:101C4000074908600846C06840F00200C8600846BE
:101C5000C06840F00800C8607047000000100240F3
:101C60000010014010B500200F4908600F480068BF
:101C700020F470400D4908600846006840F4405068
:101C80000860FFF79EFF01200949C1F88C01FFF7AA
:101C900098FF012004490860FFF793FF00200449E2
:101CA000C1F8800110BD00008001224200100140F7
:101CB0000000224270B5054600241648006820F452
:101CC0007040144908600846006840F4004008600D
:101CD0001E200AF037FA002612E000200E490860A4
:101CE000FFF76FFF01200D49C1F880016006040E67
:101CF00009487438006808B1601CC4B2701CC6B2D0
:101D0000082EEADB15B9FFF7ADFF01E0FFF75EFF34
:101D1000204670BD00100140800122420000224296
:101D200070B504461348006820F4704011490860FB
:101D30000846006840F44050086000200E490860E2
:101D4000FFF73FFF002512E0E0090B490C31086066
:101D50006006040E01200949C1F88001FFF731FF38
:101D6000002005490860FFF72CFF681CC5B2082D4C
:101D7000EADB70BD001001408001224200002242D7
:101D800010B50F48006820F470400D4908600846FF
:101D9000006840F44050086001200A4908600A4980
:101DA000C1F880011E200AF0CDF900200549086025
:101DB000FFF707FF00200449C1F8800110BD0000B3
:101DC000001001408C0122420000224210B50E4852
:101DD000006820F470400C4908600846006840F430
:101DE000405008600120094908601E200AF0AAF945
:101DF00000200749C1F88C01FFF7E3FE01200349E9
:101E00000C31086010BD000000100140800122422A
:101E10000000224210B500241348006820F47040EE
:101E2000114908600846006840F40040086001203D
:101E30000E4908600E49C1F88001FFF7C2FE09E0B3
:101E4000601CC4B2FA2C03DDFFF7C0FF012010BDF7
:101E5000FFF7B7FE0548803800680028F0D1034935
:101E60000C39086000BFF2E7001001408C012242EB
:101E70000000224210B5002400200C49086014E044
:101E80000A48A038006858B1601CC4B21E200AF08D
:101E900035F9642C09DB002004490860012010BDDD
:101EA0000120024908600020F9E7E9E7A00121428A
:101EB00010B5012003490860FFF7DCFF08B107F007
:101EC0006FFC10BD1404014010B507F0FDF90422A9
:101ED0001A491B4807F028FA19480078FF280DD145
:101EE0006F2017490870E5204870AA208870832069
:101EF000C87004221149124807F081FA02220F49E2
:101F0000491D104807F010FA0E480078FF280AD142
:101F100050200C4908705820487002220749491D7A
:101F2000084807F06CFA4FF46131242008F0F4FF00
:101F30004FF4165124200EF011FC10BD00D84C00B7
:101F40002B0000202F0000201CB54248806940F083
:101F50001000404988614048006820F0F0003E4988
:101F600008600846006840F0300008600846C06815
:101F700040F00200C8600846406820F470004860E5
:101F80000846406840F4401048600846C06840F485
:101F90000050C860FFF742FE0020304908600A2068
:101FA0000AF0ACF801202E49C1F8B4010A200AF069
:101FB000A5F82948006820F0F00027490860084685
:101FC000006840F0800008600846C06820F0020009
:101FD000C86064200AF092F80422694648F2401072
:101FE00000F054F800208DF8040069461DA0FEF7AB
:101FF000F3F91FA16846FEF741FC40BB02208DF8B3
:1020000000000122694648F2400000F071F9012207
:10201000694648F2470000F039F89DF80000602852
:1020200007DA9DF8001014A0FEF7D6F9012000F0A1
:1020300031F90A200AF062F800208DF80000012230
:10204000694648F2400000F053F900201CBD012011
:10205000FCE700000010024000100140B4012242E1
:10206000000022424354502049443A25730D0A008F
:10207000393134370000000044656661756C7420A6
:102080005665723A25640D0A000000002DE9F04102
:1020900005460F461646FFF773FE2820FFF740FE61
:1020A000FFF7B8FE2812FFF73BFEFFF7B3FEE8B2DA
:1020B000FFF736FEFFF7AEFEFFF762FE2920FFF7BF
:1020C0002FFEFFF7A7FE00240BE0711EA14201D0F6
:1020D000012100E000210846FFF7ECFD3855601CA7
:1020E000C4B2B442F1DBFFF771FEBDE8F08100003D
:1020F00031B582B00024002563480078401C624955
:102100000870084600780A2190FBF1F201FB1200EA
:1021100018B15D4800780A287DDA012202A948F248
:102120004E10FFF7B3FF9DF8080000F00F000028E5
:102130006BD09DF8080000F00F00062865DA9DF8C6
:10214000080000F00F01FF208840C0B200909DF809
:102150000000C043C0B240F0C0004C4981F82000EC
:10216000002444E0494890F820000121A1400840A3
:1021700020B3474931F81400042201A9FFF786FF74
:10218000424890F8300000F00100C0B19DF8040012
:102190009DF8051000EB012081B23C48163020F874
:1021A00014109DF806009DF8071000EB0120C0F503
:1021B000487081B235480C3020F8141015E09DF8B5
:1021C00004009DF8051000EB012081B22F480C306F
:1021D00020F814109DF806009DF8071000EB012070
:1021E00081B22A48163020F81410601CC4B2052CA5
:1021F000B8DB01252548808920B92448C08A08B960
:10220000002002900020204908709DF8080000F08E
:10221000800000B100E00DE09DF8080000F00F0024
:10222000062807DA002000900122694648F24E1085
:1022300000F05EF89DF8080000F08F0080281AD1A9
:10224000124890F8200000F0800040B10F4890F84C
:10225000200020F080000D4981F820000BE04FF6AF
:10226000FF700A498881C882084690F8200000F073
:10227000E00081F8200004480078F02802DD0A2000
:102280000149087028463EBD5F010020280100205A
:10229000DE31010838B50546002400208DF8000025
:1022A0008DF8015000BF09E09DF800000F49095D5D
:1022B0000844C0B28DF80000601CC4B2B82CF3D33F
:1022C0009DF80000C043401CC0B28DF80000B82249
:1022D000064948F2470000F00BF80222694648F22E
:1022E000FF0000F005F8002038BD0000263101088D
:1022F0002DE9F04104460E4617464FF00008FFF75F
:102300003FFD2820FFF70CFDFFF784FD2012FFF7AB
:1023100007FDFFF77FFDE0B2FFF702FDFFF77AFD53
:1023200000250BE0705DFFF7FBFCFFF773FD8046B7
:10233000B8F1000F00D003E0681CC5B2BD42F1DB6C
:1023400000BFFFF743FD4046BDE8F0812DE9F05F97
:1023500081460F4614462046E21704EB5272D21013
:102360002146E31704EB5373DB10A4EBC3030BB15B
:10237000012300E000231A44624302F0FF0B99F8A6
:10238000006009F1010081460578812E05DB402DB2
:1023900003DBFF2D01D0FF2E0DD14FF0000A06E028
:1023A000002007F8010B0AF1010000F0FF0ADA45EE
:1023B000F6DBBDE8F09F7F2D03DAA5F14000C5B242
:1023C00002E0A5F14100C5B2A6F18100C6B2BE206F
:1023D00000FB065000FB0BF80C2C04D0102C0CD08A
:1023E000182C1ED113E01048D0F8090000EB0801AA
:1023F0001822384606F098FF13E00B48D0F8110079
:1024000000EB08012022384606F08EFF09E006485E
:10241000D0F8190000EB08014822384606F084FF86
:1024200000BF00BF00BFC4E7CCA9002010B500204A
:102430000F4908600F48406820F470400D4948601B
:102440000846406840F44050486000200A49C1F8FE
:10245000AC01022009F076FE012005490860022047
:1024600009F070FE00200449C1F8B00110BD000061
:10247000B001224200100140000022420B48806956
:1024800040F01000094988610948406820F47F2025
:10249000074948600846406840F44C3048600846A8
:1024A000C06840F4C050C86070470000001002408F
:1024B0000010014010B500200F4908600F48406827
:1024C00020F470400D4948600846406840F4405090
:1024D000486001200A49C1F8AC01022009F032FE2F
:1024E000012005490860022009F02CFE0020044963
:1024F000C1F8B00110BD0000B0012242001001403F
:102500000000224270B5054600241748406820F4B8
:102510007040154948600846406840F400404860F3
:10252000002616E0002011490860022009F00AFE8A
:1025300001200F49C1F8B0016006040E0B48843831
:10254000006808B1601CC4B2012009F0FBFD701CDA
:10255000C6B2082EE6DB15B9FFF7ACFF01E0FFF7C6
:1025600065FF204670BD000000100140B00122420E
:102570000000224270B504461548406820F47040BF
:10258000134948600846406840F4405048600020C5
:1025900010490860002517E0E0090E49091F08608E
:1025A0006006040E022009F0CDFD01200A49C1F8A1
:1025B000B001022009F0C6FD002006490860022093
:1025C00009F0C0FD681CC5B2082DE5DB70BD000038
:1025D00000100140B00122420000224210B50F4815
:1025E000406820F470400D4948600846406840F457
:1025F0004050486001200A4908600A49C1F8B0010A
:10260000042009F09FFD002005490860042009F01E
:1026100099FD00200349C1F8B00110BD0010014030
:10262000AC0122420000224210B50F48406820F45D
:1026300070400D4948600846406840F4405048608A
:1026400000200A4908600A49C1F8AC01042009F0D9
:1026500079FD012005490860042009F073FD01207F
:102660000349C1F8AC0110BD00100140B001224285
:102670000000224210B500241448406820F4704045
:10268000124948600846406840F400404860012014
:102690000F49086009F056FD01200E49C1F8B0014C
:1026A00009F050FD07E0601CC4B2FA2C03DDFFF70F
:1026B000BBFF012010BD0648803800680028F2D119
:1026C0000349091D086000BFF4E700000010014045
:1026D000AC012242000022424AF6AA2001490860C9
:1026E000704700000030004045F25552054B1A601B
:1026F0001A46506091604AF6AA221A604CF6CC4203
:102700001A607047003000400146CA1701EB927210
:102710009210A1EB820292B9642091FBF0F200FBCF
:10272000121050B94FF4C87091FBF0F200FB121078
:1027300008B9012070470020FCE70120FAE70020DB
:10274000F8E7000001464906084A926942F0010292
:10275000064B9A61064A526822F0E062044B5A60C6
:102760001A4652680A435A6070470000001002403F
:102770000000014010B51E48806940F004001C496B
:1027800088610846806940F0100088610120FFF7E9
:10279000D9FF1848006820F00F0016490860084665
:1027A000006840F008000860081D006820F07040D4
:1027B000091D08600846006840F0004008600D48A8
:1027C0000C30006840F400400A490C3108600A48A7
:1027D000006820F47000084908600846006840F46A
:1027E000000008600846C06840F02000C86010BDC6
:1027F00000100240000801400010014010B50446DE
:1028000014B101201B4908701A48007808B31A480F
:10281000006838B11948006820B118483C38006891
:10282000012816D10A2009F069FC0020114908701E
:102830001148006808B9012010BD1048006808B9A7
:102840000220F9E70D483C380068012810D1032028
:10285000F2E70948006801280AD108480068012801
:1028600006D106483C38006810B9012001490870BB
:102870000020E1E706010020140122423C01214230
:1028800070B5044600261D480588408845431B480E
:10289000808846F60401884216D1184880790128BC
:1028A00012D10020154988712A2048812B20888167
:1028B0000021084604F0BCF90120104988712B2042
:1028C00048812A20888103E00021084604F0B0F9FD
:1028D00004F06CFC00260DE04FF48070084908619C
:1028E000400048610748046080204861086180001A
:1028F0000861761CAE42EFD370BD0000E0320020CC
:10290000001001400C0C014010B50446002C60D1B1
:1029100066498871F02008804FF4A070488008460E
:10292000808849F2413188420BD06048808846F661
:102930000401884205D05D48808845F21031884204
:102940001AD12C20594908812A2048812B208881BE
:102950000846808846F60401884205D0534880889E
:1029600045F21031884206D14FF4A0704F490880DB
:102970004FF4F070488095E04C48808848F6891103
:10298000884207D12220494908814E2048814F20A2
:10299000888187E04548808845F21051884210D1EF
:1029A0004FF43050414908814FF4285048814FF48A
:1029B0002C5088814FF4F07008804FF448704880A4
:1029C00070E0222039490881202048812120888117
:1029D00068E00120354988714FF4A0700880F0202C
:1029E00048800846808849F24131884205D02F4806
:1029F000808845F21031884207D12C202B4908816C
:102A00002A2048812B20888139E02848808846F692
:102A10000401884207D12C20244908812B204881B9
:102A20002A2088812BE02148808848F68911884235
:102A300007D122201D4908814F2048814E208881DE
:102A40001DE01A48808845F21051884210D14FF499
:102A50003050164908814FF4285048814FF42C50CB
:102A600088814FF4487008804FF4F070488006E089
:102A700022200E49088121204881202088810B488E
:102A8000808846F60401884205D00848808845F2CF
:102A90001031884206D14FF4F070044908804FF499
:102AA000A0704880002003F0A9FE10BDE032002095
:102AB0002DE9FF4F84B081468A460020029083466C
:102AC0000698A0EB09050798A0EB0A06CDF804903C
:102AD000CDF800A0002D01DD012705E00DB900278C
:102AE00002E04FF0FF376D42002E02DD4FF001088B
:102AF00006E016B94FF0000802E04FF0FF387642CA
:102B0000B54201DD2C4600E03446002003901EE073
:102B1000009A91B2019A90B2119A00F01FF80298AF
:102B200028440290B3440298A04205DD0298001B9D
:102B30000290019838440190A34504DDABEB040BEF
:102B40000098404400900398401C80B20390611CA0
:102B500003988842DCDD08B0BDE8F08F70B505460B
:102B60000E4614463146284604F062F804F01EFB77
:102B70004FF48070054908614000486104480460D2
:102B80008020486108618000086170BD001001402C
:102B90000C0C01402DE9F04706460F4690469A4638
:102BA000002445460320A0EB480952E03A1B91B2AD
:102BB000721B90B25246FFF7D1FF3A1B91B27219C5
:102BC00090B25246FFF7CAFF7A1991B2321B90B207
:102BD0005246FFF7C3FF3A1B91B2721B90B25246A6
:102BE000FFF7BCFF7A1B91B2321B90B25246FFF73F
:102BF000B5FF3A1991B2721990B25246FFF7AEFF83
:102C00007A1B91B2321990B25246FFF7A7FF7A1998
:102C100091B2321990B25246FFF7A0FF3A1991B221
:102C2000721B90B25246FFF799FF641CB9F1000F76
:102C300003DAA000801D814404E0601B80000A309C
:102C400081446D1E7A1991B2321990B25246FFF743
:102C500085FFAC42AADDBDE8F08700002DE9FC4FFE
:102C600005460E4617469846DDF82C900020019048
:102C70002C48808846F60401884229D12948807969
:102C8000012825D1AB46354626480088C01B401E8A
:102C900086B2474623480088A0EB0B00401E1FFA6F
:102CA00080F800201F4988712A2048812B208881C4
:102CB00043463A4631462846CDF80090FFF7CEFF0E
:102CC0000120184988712B2048812A20888127E01B
:102CD000781B401C80B2019034461FE021462846F4
:102CE00003F0A6FF04F062FA4FF0000A11E04FF47F
:102CF00080700D490861400048610C48C0F80090A0
:102D0000802048610861800008610AF101001FFA13
:102D100080FA01988245EADB601C84B24445DDDD1F
:102D2000BDE8FC8FE0320020001001400C0C014097
:102D300010B5FE48806940F00800FC4988610846EB
:102D4000806940F0100088610846806940F0010009
:102D500088610120FFF7F6FCF54840686FF30B002F
:102D6000F34948600846406840F233310843F0496F
:102D700048600846006820F07F4008600846006808
:102D800040F04C5008600846C06840F47070C8605D
:102D90004FF03330E7490860091F08604FF6FF70B5
:102DA000E44908310860322009F0A8F90121002027
:102DB00004F004FA322009F0A1F9002003F016FD16
:102DC000DD49888008468088FF280ADB084680881D
:102DD0004FF6FF71884204D0D7488088B0F5134F72
:102DE0007ED1D32004F0D0F903F0C8FC03F0C6FC78
:102DF00003F0C4FCD0498880084680884FF6FF71F4
:102E000001EA0020CC49888003F0B8FCCA498988CF
:102E10000843C94988800846808849F24131884280
:102E20006CD0BF2004F0B0F903F0A8FC03F0A6FCBE
:102E300003F0A4FC03F0A2FCBF4988800846808808
:102E40004FF6FF7101EA0020BB49888003F096FC31
:102E5000B94989880843B84988800846808846F679
:102E6000040188424AD0D42004F08EF903F086FC95
:102E700003F084FC03F082FCAF4988800846808818
:102E80004FF6FF7101EA0020AB49888003F076FC21
:102E9000A94989880843A84988800846808845F25E
:102EA000103188422AD04FF45A4004F06DF903F0F3
:102EB00065FC4FF45B4004F067F903F05FFC9E494A
:102EC0008880084680884FF6FF7101EA00209A4901
:102ED00088804FF45C4004F057F903F04FFC00E0A9
:102EE0000CE0954989880843934988800846808882
:102EF000B0F5004F02D145F2105088808E4880888E
:102F000049F2413188427CD1CF2004F03DF90020C4
:102F100004F028F9C12004F025F9302004F022F94A
:102F2000ED2004F031F9642004F01CF9032004F0D2
:102F300019F9122004F016F9812004F013F9E820A1
:102F400004F022F9852004F00DF9102004F00AF9AC
:102F50007A2004F007F9CB2004F016F9392004F0A8
:102F600001F92C2004F0FEF8002004F0FBF83420D6
:102F700004F0F8F8022004F0F5F8F72004F004F962
:102F8000202004F0EFF8EA2004F0FEF8002004F01E
:102F9000E9F8002004F0E6F8C02004F0F5F81B2062
:102FA00004F0E0F8C12004F0EFF8012004F0DAF8B2
:102FB000C52004F0E9F8302004F0D4F8302004F003
:102FC000D1F8C72004F0E0F8B72004F0CBF83620A1
:102FD00004F0DAF8482004F0C5F83A2004F0D4F8F8
:102FE000552004F0BFF8B12004F0CEF8002004F022
:102FF000B9F81A2004F0B6F8B62004F0C5F80A2093
:1030000000E0A2E004F0AEF8A22004F0ABF8F22059
:1030100004F0BAF8002004F0A5F8262004F0B4F873
:10302000012004F09FF8E02004F0AEF80F2004F037
:1030300099F82A2004F096F8282004F093F8082044
:1030400004F090F80E2004F08DF8082004F08AF8BF
:10305000542004F087F8A92004F084F8432004F0F9
:1030600081F80A2004F07EF80F2004F07BF800209D
:1030700004F078F8002004F075F8002004F072F8ED
:10308000002004F06FF8E12004F07EF8002004F046
:1030900069F8152004F066F8172004F063F807209B
:1030A00004F060F8112004F05DF8062004F05AF8EE
:1030B0002B2004F057F8562004F054F83C2004F07C
:1030C00051F8052004F04EF8102004F04BF80F20C2
:1030D00004F048F83F2004F045F83F2004F042F89F
:1030E0000F2004F03FF82B2004F04EF8002004F0ED
:1030F00039F8002004F036F8012004F033F83F20BE
:1031000004F030F82A2004F03FF8002004F02AF8F8
:10311000002004F027F8002004F024F8EF2004F049
:1031200021F8112004F030F8782007E00010024068
:1031300000100140040C0140E032002008F0DEFFE6
:10314000292004F021F803F0FBBAFE48808846F6F7
:10315000040188427ED1112004F016F8142008F0F2
:10316000CDFFD02004F010F8072003F0FBFF422031
:1031700003F0F8FF1D2003F0F5FFD12004F004F860
:10318000002003F0EFFF1A2003F0ECFF092003F00A
:10319000E9FFD22003F0F8FF012003F0E3FF222033
:1031A00003F0E0FFC02003F0EFFF102003F0DAFF90
:1031B0003B2003F0D7FF002003F0D4FF022003F0F0
:1031C000D1FF112003F0CEFFC52003F0DDFF032067
:1031D00003F0C8FFC82003F0D7FF002003F0C2FFB0
:1031E000252003F0BFFF212003F0BCFF052003F0E2
:1031F000B9FF002003F0B6FF0A2003F0B3FF6520FB
:1032000003F0B0FF252003F0ADFF772003F0AAFF05
:10321000502003F0A7FF0F2003F0A4FF002003F0CD
:10322000A1FFF82003F0B0FF012003F09BFFFE2078
:1032300003F0AAFF002003F095FF022003F092FFA5
:10324000202003F0A1FF362003F09EFF082003F0AA
:1032500089FF00E02AE03A2003F096FF552003F0B2
:1032600081FF2B2003F090FF002003F07BFF002064
:1032700003F078FF012003F075FF3F2003F072FF99
:103280002A2003F081FF002003F06CFF002003F0F0
:1032900069FF012003F066FFDF2003F063FF782061
:1032A00008F02CFF292003F06FFF4CE7A548808829
:1032B00045F21031884240F07C87ED2003F064FF36
:1032C000012003F04FFFFE2003F04CFFEE2003F03F
:1032D0005BFFDE2003F046FF212003F043FFF120D7
:1032E00003F052FF012003F03DFFDF2003F04CFF0D
:1032F000102003F037FFC42003F046FF8F2003F0B7
:1033000031FFC62003F040FF002003F02BFFE22036
:1033100003F028FFE22003F025FFE22003F022FF64
:10332000BF2003F031FFAA2003F01CFFB02003F000
:103330002BFF0D2003F016FF002003F013FF0D20DC
:1033400003F010FF002003F00DFF112003F00AFF2F
:10335000002003F007FF192003F004FF002003F012
:1033600001FF212003F0FEFE002003F0FBFE2D20D4
:1033700003F0F8FE002003F0F5FE3D2003F0F2FE1E
:10338000002003F0EFFE5D2003F0ECFE002003F0D0
:10339000E9FE5D2003F0E6FE002003F0E3FEB1202D
:1033A00003F0F2FE802003F0DDFE002003F0DAFEE1
:1033B0008B2003F0D7FE002003F0D4FE962003F00C
:1033C000D1FE002003F0CEFEB22003F0DDFE00208F
:1033D00003F0C8FE002003F0C5FE022003F0C2FE89
:1033E000002003F0BFFE032003F0BCFE002003F02A
:1033F000B9FEB32003F0C8FE002003F0B3FE0020A6
:1034000003F0B0FE002003F0ADFE002003F0AAFEA2
:10341000002003F0A7FE002003F0A4FE002003F02C
:10342000A1FE002003F09EFE002003F09BFE002082
:1034300003F098FE002003F095FE002003F092FEBA
:10344000002003F08FFE002003F08CFE002003F02C
:1034500089FE002003F086FE002003F083FE00209A
:1034600003F080FE002003F07DFE002003F07AFED2
:10347000002003F077FE002003F074FE002003F02C
:1034800071FE002003F06EFEB42003F07DFE8B2061
:1034900003F068FE002003F065FE962003F062FE54
:1034A000002003F05FFEA12003F05CFE002003F08B
:1034B00059FEB52003F068FE022003F053FE002001
:1034C00003F050FE032003F04DFE002003F04AFEFF
:1034D000042003F047FE002003F044FEB62003F072
:1034E00053FE002003F03EFE002003F03BFEB72019
:1034F00003F04AFE002003F035FE002003F032FE08
:103500003F2003F02FFE002003F02CFE5E2003F08E
:1035100029FE002003F026FE642003F023FE002095
:1035200003F020FE8C2003F01DFE002003F01AFEA5
:10353000AC2003F017FE002003F014FEDC2003F0A3
:1035400011FE01E0E0320020002003F00BFE7020AD
:1035500003F008FE002003F005FE902003F002FEB9
:10356000002003F0FFFDEB2003F0FCFD002003F042
:10357000F9FDDC2003F0F6FD002003F0F3FDB82098
:1035800003F002FE002003F0EDFD002003F0EAFD51
:10359000002003F0E7FD002003F0E4FD002003F02D
:1035A000E1FD002003F0DEFD002003F0DBFD002044
:1035B00003F0D8FDBA2003F0E7FD242003F0D2FD8C
:1035C000002003F0CFFD002003F0CCFD002003F02D
:1035D000C9FDC12003F0D8FD202003F0C3FD002069
:1035E00003F0C0FD542003F0BDFD002003F0BAFD40
:1035F000FF2003F0B7FD002003F0B4FDC22003F06C
:10360000C3FD0A2003F0AEFD002003F0ABFD042053
:1036100003F0A8FD002003F0A5FDC32003F0B4FDD6
:103620003C2003F09FFD002003F09CFD3A2003F0B6
:1036300099FD002003F096FD392003F093FD002052
:1036400003F090FD372003F08DFD002003F08AFD8C
:103650003C2003F087FD002003F084FD362003F0BA
:1036600081FD002003F07EFD322003F07BFD002071
:1036700003F078FD2F2003F075FD002003F072FDAC
:103680002C2003F06FFD002003F06CFD292003F0D7
:1036900069FD002003F066FD262003F063FD002095
:1036A00003F060FD242003F05DFD002003F05AFDCF
:1036B000242003F057FD002003F054FD232003F0E5
:1036C00051FD002003F04EFD3C2003F04BFD002097
:1036D00003F048FD362003F045FD002003F042FDD5
:1036E000322003F03FFD002003F03CFD2F2003F0CB
:1036F00039FD002003F036FD2C2003F033FD0020BF
:1037000003F030FD292003F02DFD002003F02AFDF9
:10371000262003F027FD002003F024FD242003F0E1
:1037200021FD002003F01EFD242003F01BFD0020DE
:1037300003F018FD232003F015FD002003F012FD17
:10374000C42003F021FD622003F00CFD002003F0F3
:1037500009FD052003F006FD002003F003FD842091
:1037600003F000FD002003F0FDFCF02003F0FAFC64
:10377000002003F0F7FC182003F0F4FC002003F015
:10378000F1FCA42003F0EEFC002003F0EBFC182079
:1037900003F0E8FC002003F0E5FC502003F0E2FC1D
:1037A000002003F0DFFC0C2003F0DCFC002003F021
:1037B000D9FC172003F0D6FC002003F0D3FC9520A1
:1037C00003F0D0FC002003F0CDFCF32003F0CAFC92
:1037D000002003F0C7FCE62003F0C4FC002003F047
:1037E000C1FCC52003F0D0FC322003F0BBFC00205C
:1037F00003F0B8FC442003F0B5FC002003F0B2FC59
:10380000652003F0AFFC002003F0ACFC762003F051
:10381000A9FC002003F0A6FC882003F0A3FC0020F4
:1038200003F0A0FCC62003F0AFFC202003F09AFCBC
:10383000002003F097FC172003F094FC002003F015
:1038400091FC012003F08EFC002003F08BFCC720CC
:1038500003F09AFC002003F085FC002003F082FCBA
:10386000002003F07FFC002003F07CFCC82003F064
:103870008BFC002003F076FC002003F073FC00209A
:1038800003F070FC002003F06DFCC92003F07CFC09
:10389000002003F067FC002003F064FC002003F02C
:1038A00061FC002003F05EFC002003F05BFC0020C4
:1038B00003F058FC002003F055FC002003F052FCFC
:1038C000002003F04FFC002003F04CFC002003F02C
:1038D00049FC002003F046FC002003F043FC0020DC
:1038E00003F040FC002003F03DFC002003F03AFC14
:1038F000E02003F049FC162003F034FC002003F024
:1039000031FC1C2003F02EFC002003F02BFC2120B6
:1039100003F028FC002003F025FC362003F022FCF5
:10392000002003F01FFC462003F01CFC002003F0E5
:1039300019FC522003F016FC002003F013FC642055
:1039400003F010FC002003F00DFC7A2003F00AFCC9
:10395000002003F007FC8B2003F004FC002003F0A0
:1039600001FC992003F0FEFB002003F0FBFBA820E4
:1039700003F0F8FB002003F0F5FBB92003F0F2FBA5
:10398000002003F0EFFBC42003F0ECFB002003F069
:10399000E9FBCA2003F0E6FB002003F0E3FBD220A2
:1039A00003F0E0FB002003F0DDFBD92003F0DAFB9D
:1039B000002003F0D7FBE02003F0D4FB002003F04D
:1039C000D1FBF32003F0CEFB002003F0CBFBE12082
:1039D00003F0DAFB162003F0C5FB002003F0C2FB66
:1039E0001C2003F0BFFB002003F0BCFB222003F0EF
:1039F000B9FB002003F0B6FB362003F0B3FB002038
:103A000003F0B0FB452003F0ADFB002003F0AAFB60
:103A1000522003F0A7FB002003F0A4FB642003F076
:103A2000A1FB002003F09EFB7A2003F09BFB00200B
:103A300003F098FB8B2003F095FB002003F092FB32
:103A4000992003F08FFB002003F08CFBA82003F0EB
:103A500089FB002003F086FBB92003F083FB0020E4
:103A600003F080FBC42003F07DFB002003F07AFB11
:103A7000CA2003F077FB002003F074FBD22003F090
:103A800071FB002003F06EFBD82003F06BFB0020DD
:103A900003F068FBE02003F065FB002003F062FB0D
:103AA000F32003F05FFB002003F05CFBE22003F057
:103AB0006BFB052003F056FB002003F053FB0B20AB
:103AC00003F050FB002003F04DFB1B2003F04AFBEA
:103AD000002003F047FB342003F044FB002003F0F8
:103AE00041FB442003F03EFB002003F03BFB4F2052
:103AF00003F038FB002003F035FB612003F032FBBC
:103B0000002003F02FFB792003F02CFB002003F0B2
:103B100029FB882003F026FB002003F023FB9720DD
:103B200003F020FB002003F01DFBA62003F01AFB8E
:103B3000002003F017FBB72003F014FB002003F074
:103B400011FBC22003F00EFB002003F00BFBC7208B
:103B500003F008FB002003F005FBD12003F002FB7B
:103B6000002003F0FFFAD62003F0FCFA002003F057
:103B7000F9FADD2003F0F6FA002003F0F3FAF3205F
:103B800003F0F0FA002003F0EDFAE32003F0FCFA72
:103B9000052003F0E7FA002003F0E4FA0A2003F01E
:103BA000E1FA002003F0DEFA1C2003F0DBFA00202B
:103BB00003F0D8FA332003F0D5FA002003F0D2FA4C
:103BC000442003F0CFFA002003F0CCFA502003F099
:103BD000C9FA002003F0C6FA622003F0C3FA0020FD
:103BE00003F0C0FA782003F0BDFA002003F0BAFA1F
:103BF000882003F0B7FA002003F0B4FA972003F00E
:103C0000B1FA002003F0AEFAA62003F0ABFA0020D0
:103C100003F0A8FAB72003F0A5FA002003F0A2FAF7
:103C2000C22003F09FFA002003F09CFAC72003F0A3
:103C300099FA002003F096FAD12003F093FA0020BD
:103C400003F090FAD52003F08DFA002003F08AFAF1
:103C5000DD2003F087FA002003F084FAF32003F05C
:103C600081FA002003F07EFAE42003F08DFA0120AF
:103C700003F078FA002003F075FA012003F072FADD
:103C8000002003F06FFA022003F06CFA002003F02A
:103C900069FA2A2003F066FA002003F063FA3C2058
:103CA00003F060FA002003F05DFA4B2003F05AFAAB
:103CB000002003F057FA5D2003F054FA002003F0CF
:103CC00051FA742003F04EFA002003F04BFA8420DE
:103CD00003F048FA002003F045FA932003F042FA7B
:103CE000002003F03FFAA22003F03CFA002003F08A
:103CF00039FAB32003F036FA002003F033FABE207D
:103D000003F030FA002003F02DFAC42003F02AFA61
:103D1000002003F027FACD2003F024FA002003F05E
:103D200021FAD32003F01EFA002003F01BFADD2055
:103D300003F018FA002003F015FAF32003F012FA4A
:103D4000002003F00FFAE52003F01EFA002003F034
:103D500009FA002003F006FA002003F003FA00201D
:103D600003F000FA022003F0FDF9002003F0FAF955
:103D7000292003F0F7F9002003F0F4F93C2003F0C8
:103D8000F1F9002003F0EEF94B2003F0EBF90020ED
:103D900003F0E8F95D2003F0E5F9002003F0E2F913
:103DA000742003F0DFF9002003F0DCF9842003F035
:103DB000D9F9002003F0D6F9932003F0D3F90020BD
:103DC00003F0D0F9A22003F0CDF9002003F0CAF9E6
:103DD000B32003F0C7F9002003F0C4F9BE2003F0BC
:103DE000C1F9002003F0BEF9C42003F0BBF90020A4
:103DF00003F0B8F9CD2003F0B5F9002003F0B2F9D3
:103E0000D32003F0AFF9002003F0ACF9DC2003F07D
:103E1000A9F9002003F0A6F9F32003F0A3F900208C
:103E200003F0A0F9E62003F0AFF9112003F09AF9AE
:103E3000002003F097F9342003F094F9002003F0F8
:103E400091F9562003F08EF9002003F08BF97620CB
:103E500003F088F9002003F085F9772003F082F958
:103E6000002003F07FF9662003F07CF9002003F0C6
:103E700079F9882003F076F9002003F073F999208E
:103E800003F070F9002003F06DF9BB2003F06AF92C
:103E9000002003F067F9992003F064F9002003F093
:103EA00061F9662003F05EF9002003F05BF955200C
:103EB00003F058F9002003F055F9552003F052F9AA
:103EC000002003F04FF9452003F04CF9002003F0E7
:103ED00049F9432003F046F9002003F043F9442058
:103EE00003F040F9002003F03DF9E72003F04CF91E
:103EF000322003F037F9002003F034F9552003F0A5
:103F000031F9002003F02EF9762003F02BF9002080
:103F100003F028F9662003F025F9002003F022F9C8
:103F2000672003F01FF9002003F01CF9672003F05D
:103F300019F9002003F016F9872003F013F9002087
:103F400003F010F9992003F00DF9002003F00AF9AD
:103F5000BB2003F007F9002003F004F9992003F0D7
:103F600001F9002003F0FEF8772003F0FBF80020B1
:103F700003F0F8F8442003F0F5F8002003F0F2F81D
:103F8000562003F0EFF8002003F0ECF8232003F0B4
:103F9000E9F8002003F0E6F8332003F0E3F800200E
:103FA00003F0E0F8452003F0DDF8002003F0DAF834
:103FB000E82003F0E9F8002003F0D4F8002003F033
:103FC000D1F8992003F0CEF8002003F0CBF8872039
:103FD00003F0C8F8002003F0C5F8882003F0C2F809
:103FE000002003F0BFF8772003F0BCF8002003F0B6
:103FF000B9F8662003F0B6F8002003F0B3F8882083
:1040000003F0B0F8002003F0ADF8AA2003F0AAF8FE
:10401000002003F0A7F8BB2003F0A4F8002003F071
:10402000A1F8992003F09EF8002003F09BF8662089
:1040300003F098F8002003F095F8552003F092F86B
:10404000002003F08FF8552003F08CF8002003F0D7
:1040500089F8442003F086F8002003F083F8442018
:1040600003F080F8002003F07DF8552003F07AF883
:10407000002003F077F8E92003F086F8AA2003F087
:1040800071F8002003F06EF8002003F06BF80020B8
:1040900003F068F8002003F077F8AA2003F062F834
:1040A000CF2003F071F8002003F05CF8002003F04B
:1040B00059F8002003F056F8002003F053F80020D0
:1040C00003F050F8002003F04DF8002003F04AF808
:1040D000002003F047F8002003F044F8002003F02C
:1040E00041F8002003F03EF8002003F03BF80020E8
:1040F00003F038F8002003F035F8002003F032F820
:10410000002003F02FF8002003F02CF8F02003F03B
:104110003BF8002003F026F8502003F023F800209D
:1041200003F020F8002003F01DF8002003F01AF837
:10413000F32003F029F8002003F014F8F92003F02D
:1041400023F8062003F00EF8102003F00BF82920C6
:1041500003F008F8002003F005F83A2003F014F803
:10416000552002F0FFFF112003F00EF8642007F045
:10417000C5FF292003F008F8352003F005F80020DA
:1041800002F0F0FF512002F0FFFFFF2002F0EAFFF3
:10419000532002F0F9FF2C2002F0E4FF552002F03A
:1041A000F3FF822002F0DEFF2C2002F0EDFF02F090
:1041B000C7BAFE48808845F2105188427ED1552109
:1041C0004FF4704002F0FAFFAA214FF2010002F012
:1041D000F5FF52214FF2020002F0F0FF08214FF2EA
:1041E000030002F0EBFF01214FF2040002F0E6FFB2
:1041F0000D214FF4304002F0E1FF0D214BF20100A0
:1042000002F0DCFF0D214BF2020002F0D7FF342157
:104210004FF4364002F0D2FF34214BF2016002F03D
:10422000CDFF34214BF2026002F0C8FF0D214FF4A4
:10423000314002F0C3FF0D214BF2011002F0BEFF2E
:104240000D214BF2021002F0B9FF34214FF4374038
:1042500002F0B4FF34214BF2017002F0AFFF3421C1
:104260004BF2027002F0AAFF00214FF4324002F03C
:10427000A5FF00214BF2012002F0A0FF00214BF22C
:10428000022002F09BFF24214FF4384002F096FFF9
:1042900024214BF6010002F091FF24214BF602008D
:1042A00002F08CFF01214FF43F4002F087FF0F2105
:1042B0004FF4334002F082FF0F2100E0FEE34BF2A7
:1042C000013002F07BFF0F214BF2023002F076FF4B
:1042D00034214FF4394002F071FF34214BF60110C4
:1042E00002F06CFF34214BF6021002F067FF082148
:1042F0004FF4354002F062FF08214BF2015002F00A
:104300005DFF08214BF2025002F058FF03214FF4E9
:10431000424002F053FF24214FF43A4002F04EFF96
:1043200024214BF6012002F049FF24214BF6022004
:1043300002F044FF00214FF43C4002F03FFF78219F
:104340004BF6014002F03AFF00214BF6024002F02A
:1043500035FF00214FF43D4002F030FF78214BF64D
:10436000015002F02BFF00214BF6025002F026FF15
:1043700000214FF43E4002F021FF64214BF6016022
:1043800002F01CFF00214FF4514002F017FF3321CF
:104390004DF2011002F012FF00214DF2021002F066
:1043A0000DFF34214DF2031002F008FF00214DF201
:1043B000041002F003FF3A214DF2051002F0FEFE58
:1043C00000214DF2061002F0F9FE4A214DF20710CD
:1043D00002F0F4FE00214DF2081002F0EFFE5C2125
:1043E0004DF2091002F0EAFE00214DF20A1002F02F
:1043F000E5FE81214DF20B1002F0E0FE00214DF2AE
:104400000C1002F0DBFEA6214DF20D1002F0D6FEDC
:1044100000214DF20E1002F0D1FEE5214DF20F10F9
:1044200002F0CCFE01214DF2101002F0C7FE132164
:104430004DF2111002F0C2FE01214DF2121002F0F5
:10444000BDFE54214DF2131002F0B8FE01214DF2D1
:10445000141002F0B3FE82214DF2151002F0AEFEF0
:1044600001214DF2161002F0A9FECA214DF21710DB
:1044700002F0A4FE02214DF2181002F09FFE00216E
:104480004DF2191002F09AFE02214DF21A1002F0BC
:1044900095FE01214DF21B1002F090FE02214DF21B
:1044A0001C1002F08BFE34214DF21D1002F086FE2E
:1044B00002214DF21E1002F081FE67214DF21F1005
:1044C00002F07CFE02214DF2201002F077FE8421E2
:1044D0004DF2211002F072FE02214DF2221002F084
:1044E0006DFEA4214DF2231002F068FE02214DF270
:1044F000241002F063FEB7214DF2251002F05EFE9B
:1045000002214DF2261002F059FECF214DF2271064
:1045100002F054FE02214DF2281002F04FFEDE217F
:104520004DF2291002F04AFE02214DF22A1002F04B
:1045300045FEF2214DF22B1002F040FE02214DF219
:104540002C1002F03BFEFE214DF22D1002F036FE43
:1045500003214DF22E1002F031FE10214DF22F10EA
:1045600002F02CFE03214DF2301002F027FE332121
:104570004DF2311002F022FE03214DF2321002F012
:104580001DFE6D214DF2331002F018FE00214FF494
:10459000524002F013FE33214DF2012002F00EFED4
:1045A00000214DF2022002F009FE01E0E03200207D
:1045B00034214DF2032002F001FE00214DF20420CF
:1045C00002F0FCFD3A214DF2052002F0F7FD00213A
:1045D0004DF2062002F0F2FD4A214DF2072002F0D2
:1045E000EDFD00214DF2082002F0E8FD5C214DF2C6
:1045F000092002F0E3FD00214DF20A2002F0DEFD69
:1046000081214DF20B2002F0D9FD00214DF20C204A
:1046100002F0D4FDA6214DF20D2002F0CFFD0021C5
:104620004DF20E2002F0CAFDE5214DF20F2002F0FE
:10463000C5FD01214DF2102002F0C0FD13214DF205
:10464000112002F0BBFD01214DF2122002F0B6FD57
:1046500054214DF2132002F0B1FD01214DF214203E
:1046600002F0ACFD82214DF2152002F0A7FD0121E0
:104670004DF2162002F0A2FDCA214DF2172002F0E1
:104680009DFD02214DF2182002F098FD00214DF20F
:10469000192002F093FD02214DF21A2002F08EFD46
:1046A00001214DF21B2002F089FD02214DF21C2058
:1046B00002F084FD34214DF21D2002F07FFD022125
:1046C0004DF21E2002F07AFD67214DF21F2002F00C
:1046D00075FD02214DF2202002F070FD84214DF283
:1046E000212002F06BFD02214DF2222002F066FD36
:1046F000A4214DF2232002F061FD02214DF224207D
:1047000002F05CFDB7214DF2252002F057FD022199
:104710004DF2262002F052FDCF214DF2272002F06B
:104720004DFD02214DF2282002F048FDDE214DF220
:10473000292002F043FD02214DF22A2002F03EFD25
:10474000F2214DF22B2002F039FD02214DF22C20F6
:1047500002F034FDFE214DF22D2002F02FFD032149
:104760004DF22E2002F02AFD10214DF22F2002F0F2
:1047700025FD03214DF2302002F020FD33214DF2C2
:10478000312002F01BFD03214DF2322002F016FD14
:104790006D214DF2332002F011FD00214FF4534002
:1047A00002F00CFD33214DF2013002F007FD002133
:1047B0004DF2023002F002FD34214DF2033002F0DE
:1047C000FDFC00214DF2043002F0F8FC3A214DF2DC
:1047D000053002F0F3FC00214DF2063002F0EEFC51
:1047E0004A214DF2073002F0E9FC00214DF2083079
:1047F00002F0E4FC5C214DF2093002F0DFFC002104
:104800004DF20A3002F0DAFC81214DF20B3002F059
:10481000D5FC00214DF20C3002F0D0FCA6214DF267
:104820000D3002F0CBFC00214DF20E3002F0C6FC40
:10483000E5214DF20F3002F0C1FC01214DF21030A4
:1048400002F0BCFC13214DF2113002F0B7FC012143
:104850004DF2123002F0B2FC54214DF2133002F04E
:10486000ADFC01214DF2143002F0A8FC82214DF282
:10487000153002F0A3FC01214DF2163002F09EFC2F
:10488000CA214DF2173002F099FC02214DF2183086
:1048900002F094FC00214DF2193002F08FFC02214D
:1048A0004DF21A3002F08AFC01214DF21B3002F069
:1048B00085FC02214DF21C3002F080FC34214DF2C7
:1048C0001D3002F07BFC02214DF21E3002F076FC1E
:1048D00067214DF21F3002F071FC02214DF22030B1
:1048E00002F06CFC84214DF2213002F067FC0221C1
:1048F0004DF2223002F062FCA4214DF2233002F08E
:104900005DFC02214DF2243002F058FCB7214DF23B
:10491000253002F053FC02214DF2263002F04EFC0D
:10492000CF214DF2273002F049FC02214DF2283010
:1049300002F044FCDE214DF2293002F03FFC02215E
:104940004DF22A3002F03AFCF2214DF22B3002F007
:1049500035FC02214DF22C3002F030FCFE214DF2EC
:104960002D3002F02BFC03214DF22E3002F026FCFC
:1049700010214DF22F3002F021FC03214DF2303096
:1049800002F01CFC33214DF2313002F017FC032100
:104990004DF2323002F012FC6D214DF2333002F054
:1049A0000DFC00214FF4544002F008FC33214DF27D
:1049B000014002F003FC00214DF2024002F0FEFB38
:1049C00034214DF2034002F0F9FB00214DF2044086
:1049D00002F0F4FB3A214DF2054002F0EFFB00211A
:1049E0004DF2064002F0EAFB4A214DF2074002F088
:1049F000E5FB00214DF2084002F0E0FB5C214DF2A6
:104A0000094002F0DBFB00214DF20A4002F0D6FB28
:104A100081214DF20B4002F0D1FB00214DF20C4000
:104A200002F0CCFBA6214DF20D4002F0C7FB0021A5
:104A30004DF20E4002F0C2FBE5214DF20F4002F0B4
:104A4000BDFB01214DF2104002F0B8FB13214DF2E5
:104A5000114002F0B3FB01214DF2124002F0AEFB17
:104A600054214DF2134002F0A9FB01214DF21440F4
:104A700002F0A4FB82214DF2154002F09FFB0121C0
:104A80004DF2164002F09AFBCA214DF2174002F097
:104A900095FB02214DF2184002F090FB00214DF2EF
:104AA000194002F08BFB02214DF21A4002F086FB06
:104AB00001214DF21B4002F081FB00E004E30221E2
:104AC0004DF21C4002F07AFB34214DF21D4002F001
:104AD00075FB02214DF21E4002F070FB67214DF282
:104AE0001F4002F06BFB02214DF2204002F066FBFA
:104AF00084214DF2214002F061FB02214DF222405F
:104B000002F05CFBA4214DF2234002F057FB02218E
:104B10004DF2244002F052FBB7214DF2254002F045
:104B20004DFB02214DF2264002F048FBCF214DF211
:104B3000274002F043FB02214DF2284002F03EFBE9
:104B4000DE214DF2294002F039FB02214DF22A40CC
:104B500002F034FBF2214DF22B4002F02FFB022138
:104B60004DF22C4002F02AFBFE214DF22D4002F0C6
:104B700025FB03214DF22E4002F020FB10214DF2C7
:104B80002F4002F01BFB03214DF2304002F016FBD8
:104B900033214DF2314002F011FB03214DF232403E
:104BA00002F00CFB6D214DF2334002F007FB0021B7
:104BB0004FF4554002F002FB33214DF2015002F058
:104BC000FDFA00214DF2025002F0F8FA34214DF2C4
:104BD000035002F0F3FA00214DF2045002F0EEFA15
:104BE0003A214DF2055002F0E9FA00214DF206504B
:104BF00002F0E4FA4A214DF2075002F0DFFA0021F8
:104C00004DF2085002F0DAFA5C214DF2095002F040
:104C1000D5FA00214DF20A5002F0D0FA81214DF26E
:104C20000B5002F0CBFA00214DF20C5002F0C6FA04
:104C3000A6214DF20D5002F0C1FA00214DF20E50A6
:104C400002F0BCFAE5214DF20F5002F0B7FA012153
:104C50004DF2105002F0B2FA13214DF2115002F051
:104C6000ADFA01214DF2125002F0A8FA54214DF292
:104C7000135002F0A3FA01214DF2145002F09EFAF3
:104C800082214DF2155002F099FA01214DF2165091
:104C900002F094FACA214DF2175002F08FFA022165
:104CA0004DF2185002F08AFA00214DF2195002F02C
:104CB00085FA02214DF21A5002F080FA01214DF2DC
:104CC0001B5002F07BFA02214DF21C5002F076FAE2
:104CD00034214DF21D5002F071FA02214DF21E50A6
:104CE00002F06CFA67214DF21F5002F067FA0221C0
:104CF0004DF2205002F062FA84214DF2215002F070
:104D00005DFA02214DF2225002F058FAA4214DF230
:104D1000235002F053FA02214DF2245002F04EFAD1
:104D2000B7214DF2255002F049FA02214DF22650EA
:104D300002F044FACF214DF2275002F03FFA02214F
:104D40004DF2285002F03AFADE214DF2295002F0DD
:104D500035FA02214DF22A5002F030FAF2214DF2DA
:104D60002B5002F02BFA02214DF22C5002F026FAC1
:104D7000FE214DF22D5002F021FA03214DF22E506A
:104D800002F01CFA10214DF22F5002F017FA032105
:104D90004DF2305002F012FA33214DF2315002F050
:104DA0000DFA03214DF2325002F008FA6D214DF256
:104DB000335002F003FA00214FF4564002F0FEF99E
:104DC00033214DF2016002F0F9F900214DF2026049
:104DD00002F0F4F934214DF2036002F0EFF9002102
:104DE0004DF2046002F0EAF93A214DF2056002F05A
:104DF000E5F900214DF2066002F0E0F94A214DF29A
:104E0000076002F0DBF900214DF2086002F0D6F9EC
:104E10005C214DF2096002F0D1F900214DF20A60E7
:104E200002F0CCF981214DF20B6002F0C7F90021AC
:104E30004DF20C6002F0C2F9A6214DF20D6002F0B5
:104E4000BDF900214DF20E6002F0B8F9E5214DF2F6
:104E50000F6002F0B3F901214DF2106002F0AEF9DB
:104E600013214DF2116002F0A9F901214DF21260F7
:104E700002F0A4F954214DF2136002F09FF90121D0
:104E80004DF2146002F09AF982214DF2156002F0A1
:104E900095F901214DF2166002F090F9CA214DF208
:104EA000176002F08BF902214DF2186002F086F9CA
:104EB00000214DF2196002F081F902214DF21A60D1
:104EC00002F07CF901214DF21B6002F077F902211A
:104ED0004DF21C6002F072F934214DF21D6002F0B7
:104EE0006DF902214DF21E6002F068F967214DF262
:104EF0001F6002F063F902214DF2206002F05EF9BA
:104F000084214DF2216002F059F902214DF2226014
:104F100002F054F9A4214DF2236002F04FF902216E
:104F20004DF2246002F04AF9B7214DF2256002F0FB
:104F300045F902214DF2266002F040F9CF214DF2F1
:104F4000276002F03BF902214DF2286002F036F9A9
:104F5000DE214DF2296002F031F902214DF22A6082
:104F600002F02CF9F2214DF22B6002F027F9022118
:104F70004DF22C6002F022F9FE214DF22D6002F07C
:104F80001DF903214DF22E6002F018F910214DF2A7
:104F90002F6002F013F903214DF2306002F00EF998
:104FA00033214DF2316002F009F903214DF23260F4
:104FB00002F004F96D214DF2336002F0FFF8552143
:104FC0004FF4704002F0FAF8AA214FF2010002F00B
:104FD000F5F852214FF2020002F0F0F808214FF2EA
:104FE000030002F0EBF800214FF2040002F0E6F8B3
:104FF000CC214FF4314002F0E1F800214BF20110D6
:1050000002F0DCF805214FF4364002F0D7F87021A9
:105010004FF4374002F0D2F870214BF2017002F0E9
:10502000CDF801214FF4384002F0C8F803214BF6C7
:10503000010002F0C3F803214BF6020002F0BEF8B3
:1050400003214BF6030002F0B9F802214FF43C4073
:1050500002F0B4F800214BF6014002F0AFF8002155
:105060004BF6024002F0AAF8D0214FF4494002F07A
:10507000A5F802214CF6011002F0A0F850214CF6E0
:10508000021002F09BF850214CF6031002F096F843
:1050900050214CF6041002F091F800214FF45450C6
:1050A00002F08CF855214FF4685002F087F84FF465
:1050B000885002F069F8782007F044F84FF4245043
:1050C00002F062F801F03CBBFE48808849F22531CD
:1050D00088427DD147F6F001E52002F06FF84FF4E9
:1050E0008071012002F06AF84FF4E061022002F0C2
:1050F00065F841F23001032002F060F8002104203D
:1051000002F05CF840F20221082002F057F800217A
:10511000092002F053F800210A2002F04FF8002184
:105120000C2002F04BF800210D2002F047F800217E
:105130000F2002F043F80021102002F03FF8072171
:10514000112002F03BF80021122002F037F8002174
:10515000132002F033F80021072002F02FF841F26B
:105160009061102002F02AF840F22721112002F06D
:1051700025F89D21122002F021F84FF4C851132088
:1051800002F01CF82521292002F018F80D212B200F
:1051900002F014F80721302002F010F840F2033139
:1051A000312002F00BF80321322002F007F840F220
:1051B0000621352002F002F80821362001F0FEFF1A
:1051C00040F20641372001F0F9FF4FF4417100E051
:1051D00058E0382001F0F2FF0721392001F0EEFFFE
:1051E00040F202613C2001F0E9FF08213D2001F07E
:1051F000E5FF0021502001F0E1FFEF21512001F0F7
:10520000DDFF0021522001F0D9FF40F23F11532071
:1052100001F0D4FF4FF42741602001F0CFFF0121BE
:10522000612001F0CBFF00216A2001F0C7FF0021BF
:10523000802001F0C3FF0021812001F0BFFF002189
:10524000822001F0BBFF0021832001F0B7FF002185
:10525000842001F0B3FF0021852001F0AFFF102171
:10526000902001F0ABFF4FF4C061922001F0A6FF47
:1052700040F23311072001F0A1FF2221002001F0AC
:105280009DFF1FE78F48808849F2283188427DD1F1
:1052900041F28F01EC2001F091FF41F23421EF2027
:1052A00001F08CFF4FF48071012001F087FF4FF473
:1052B000E061022001F082FF41F23001032001F0A1
:1052C0007DFF0021042001F079FF40F20221082037
:1052D00001F074FF0021092001F070FF00210A2075
:1052E00001F06CFF01210C2001F068FF00210D206E
:1052F00001F064FF00210F2001F060FF0021102069
:1053000001F05CFF0721112001F058FF002112205D
:1053100001F054FF0021132001F050FF012107206C
:1053200001F04CFF322006F0E9FE41F290411020DE
:1053300001F044FF40F22721112001F03FFF32200D
:1053400006F0DCFE8A21122001F038FF322006F040
:10535000D5FE4FF4D051132001F030FF0621292053
:1053600001F02CFF0D212B2001F028FF322006F048
:10537000C5FE0021202001F021FF0021212001F0A5
:105380001DFF322006F0BAFE002100E075E030205B
:1053900001F014FF40F20461312001F00FFF40F2F0
:1053A0000531322001F00AFF0021352001F006FF0F
:1053B00040F60941362001F001FF4FF4017137201A
:1053C00001F0FCFE40F20131382001F0F7FE40F21E
:1053D0000771392001F0F2FE00213C2001F0EEFEC1
:1053E00040F60A213D2001F0E9FE322006F086FE5B
:1053F0000021502001F0E2FEEF21512001F0DEFEFD
:105400000021522001F0DAFE40F23F11532001F05A
:10541000D5FE4FF42741602001F0D0FE012161202C
:1054200001F0CCFE00216A2001F0C8FE002180209E
:1054300001F0C4FE0021812001F0C0FE0021822085
:1054400001F0BCFE0021832001F0B8FE0021842081
:1054500001F0B4FE0021852001F0B0FE1021902063
:1054600001F0ACFE4FF4C061922001F0A7FE40F2C3
:105470003311072001F0A2FE24E61248808849F289
:10548000253188427ED147F6F001E52001F096FEF5
:105490004FF48071012001F091FE4FF4E061022091
:1054A00001F08CFE41F23001032001F087FE002163
:1054B000042001F083FE40F20221082001F07EFE6C
:1054C000002101E0E0320020092001F077FE0021F8
:1054D0000A2001F073FE00210C2001F06FFE002174
:1054E0000D2001F06BFE00210F2001F067FE00216E
:1054F000102001F063FE0721112001F05FFE002162
:10550000122001F05BFE0021132001F057FE002164
:10551000072001F053FE41F29061102001F04EFE91
:1055200040F22721112001F049FE9D21122001F0B7
:1055300045FE4FF4C851132001F040FE25212920DB
:1055400001F03CFE0D212B2001F038FE0721302018
:1055500001F034FE40F20331312001F02FFE03212F
:10556000322001F02BFE40F20621352001F026FE0C
:105570000821362001F022FE40F20641372001F0DA
:105580001DFE00E05AE04FF44171382001F016FE94
:105590000721392001F012FE40F202613C2001F0A7
:1055A0000DFE08213D2001F009FE0021502001F0F0
:1055B00005FEEF21512001F001FE0021522001F0F3
:1055C000FDFD40F23F11532001F0F8FD4FF427415B
:1055D000602001F0F3FD0121612001F0EFFD0021C9
:1055E0006A2001F0EBFD0021802001F0E7FD0021A1
:1055F000812001F0E3FD0021822001F0DFFD002188
:10560000832001F0DBFD0021842001F0D7FD002183
:10561000852001F0D3FD1021902001F0CFFD4FF443
:10562000C061922001F0CAFD40F23311072001F061
:10563000C5FD2221002001F0C1FD43E5FE48808820
:1056400049F2283188427DD141F28F01EC2001F0EE
:10565000B5FD41F23421EF2001F0B0FD4FF480712F
:10566000012001F0ABFD4FF4E061022001F0A6FD46
:1056700041F23001032001F0A1FD0021042001F0DE
:105680009DFD40F20221082001F098FD0021092033
:1056900001F094FD00210A2001F090FD01210C2071
:1056A00001F08CFD00210D2001F088FD00210F206C
:1056B00001F084FD0021102001F080FD0721112060
:1056C00001F07CFD0021122001F078FD0021132063
:1056D00001F074FD0121072001F070FD322006F079
:1056E0000DFD41F29041102001F068FD40F22721AC
:1056F000112001F063FD322006F000FD8A21122006
:1057000001F05CFD322006F0F9FC4FF4D05113207B
:1057100001F054FD0621292001F050FD0D212B2020
:1057200001F04CFD322006F0E9FC0021202001F0C0
:1057300045FD0021212001F041FD322006F0DEFC74
:10574000002100E075E0302001F038FD40F20461F6
:10575000312001F033FD40F20531322001F02EFD01
:105760000021352001F02AFD40F60941362001F0E4
:1057700025FD4FF40171372001F020FD40F2013189
:10578000382001F01BFD40F20771392001F016FDB1
:1057900000213C2001F012FD40F60A213D2001F0DD
:1057A0000DFD322006F0AAFC0021502001F006FD7C
:1057B000EF21512001F002FD0021522001F0FEFCFA
:1057C00040F23F11532001F0F9FC4FF427416020D3
:1057D00001F0F4FC0121612001F0F0FC00216A20BD
:1057E00001F0ECFC0021802001F0E8FC0021812088
:1057F00001F0E4FC0021822001F0E0FC0021832084
:1058000001F0DCFC0021842001F0D8FC002185207F
:1058100001F0D4FC1021902001F0D0FC4FF4C061C5
:10582000922001F0CBFC40F23311072001F0C6FCBE
:1058300048E48148808849F2203188427ED10021A5
:10584000084601F0BBFC4FF48071012001F0B6FC6A
:105850004FF4E061022001F0B1FC41F2300103207D
:1058600001F0ACFC0021042001F0A8FC40F2022170
:10587000082001F0A3FC0021092001F09FFC002179
:105880000A2001F09BFC01210C2001F097FC002173
:105890000D2001F093FC00210F2001F08FFC32203D
:1058A00006F02CFC40F20111072001F087FC3220A9
:1058B00006F024FC4FF48651102001F07FFC0721F4
:1058C000112001F07BFC4FF48871122001F076FC6E
:1058D0004FF43061132001F071FC0021292001F008
:1058E0006DFC44F210012B2001F068FC00215020D7
:1058F00001F064FCEF21512001F060FC00215220F6
:1059000001F05CFC40F23F11532001F057FC4FF4D2
:105910001C51602001F052FC0121612001F04EFC7D
:1059200000216A2001F04AFC0021802001F046FCA1
:105930000021812001F042FC002100E02DE08220C6
:1059400001F03CFC0021832001F038FC0021842080
:1059500001F034FC0021852001F030FC1021902062
:1059600001F02CFC0021922001F028FC0121932061
:1059700001F024FC4FF48871952001F01FFC0021F8
:10598000972001F01BFC0021982001F017FC40F249
:105990007311072001F012FC73E42748808849F254
:1059A000313188427DD141F21401E72001F006FC3B
:1059B0004FF48071012001F001FC4FF400710220CE
:1059C00001F0FCFB41F23801032001F0F7FB40F24B
:1059D0000221082001F0F2FB0021092001F0EEFB7A
:1059E00000210A2001F0EAFB00210C2001F0E6FB77
:1059F00000210D2001F0E2FB00210F2001F0DEFB71
:105A00000021102001F0DAFB0721112001F0D6FB64
:105A10000021122001F0D2FB0021132001F0CEFB67
:105A2000C82006F06BFB41F29061102001F0C6FB2C
:105A300040F22721112001E0E032002001F0BEFBFE
:105A4000322006F05BFB0C21122001F0B7FB322064
:105A500006F054FB4FF40061132001F0AFFB11215D
:105A6000292001F0ABFB0B212B2001F0A7FB3220FA
:105A700006F044FB0021202001F0A0FB40F23F1182
:105A8000212001F09BFB0021302001F097FB4FF417
:105A90008371312001F092FB0021322001F08EFB56
:105AA00000E067E04FF40171352001F087FB41F21F
:105AB0000A61362001F082FB40F20771372001F0C5
:105AC0007DFB4FF48371382001F078FB40F20771C1
:105AD000392001F073FB40F202413C2001F06EFBE3
